:020000040800F2
:1000000078160020B5130008E1060008E306000892
:10001000E7060008EB060008EF06000800000000F5
:10002000000000000000000000000000F3060008CF
:10003000F506000800000000F7060008CD130008D0
:10004000CF130008CF130008CF130008CF13000808
:10005000CF130008CF130008CF130008CF130008F8
:10006000CF130008CF130008CF130008CF130008E8
:10007000CF130008CF130008CF130008CF130008D8
:10008000CF130008CF130008CF130008CF130008C8
:10009000CF130008CF130008CF130008CF130008B8
:1000A000CF130008CF130008CF130008CF130008A8
:1000B000CF130008CF120008CF130008CF13000899
:1000C000CF130008CF130008CF130008CF13000888
:1000D000CF130008952F0008CF1300088B130008DA
:1000E000CF130008CF130008CF13000800F002F868
:1000F00000F073F80AA090E8000C82448344AAF14F
:100100000107DA4501D100F068F8AFF2090EBAE84C
:100110000F0013F0010F18BFFB1A43F0010318473B
:1001200034AE000054AE00000A444FF0000C10F84A
:10013000013B13F0070408BF10F8014B1D1108BF65
:1001400010F8015B641E05D010F8016B641E01F805
:10015000016BF9D113F0080F1EBF10F8014BAD1C55
:100160000C1B09D16D1E58BF01F801CBFAD505E073
:1001700014F8016B01F8016B6D1EF9D59142D6D3CD
:10018000704700000023002400250026103A28BFF5
:1001900078C1FBD8520728BF30C148BF0B607047F9
:1001A000662908F07A86642905F05C85782905F0CF
:1001B0009585002070471FB506F00AFA040000205C
:1001C000002107F0E3FC401C60600020002107F0E4
:1001D000F3FCE0601FBD10B510BD06F0FDFA11463E
:1001E000FFF7E9FF00F0D4F806F01BFB03B4FFF7BC
:1001F000F2FF03BC02F068FEFE4890F8510050B1D7
:100200000020FC4981F85100084690F8780010B1B0
:10021000002081F878007047044603E02146F6A0EC
:1002200005F0D8FCFAE7F8B50026F24890F850003F
:10023000002866D00020EF4981F8500000BF5EE042
:1002400046B9F0A1EB4805F011FE041E55D101207E
:10025000FFF7E2FF641CEBA1204605F007FE051E38
:1002600048D0072E2ED2DFE806F02D040B11181F00
:1002700026002A1B2146DF48523005F028FE22E0E6
:100280002A1B2146684605F022FE1CE02A1B214657
:10029000D8485D3005F01BFE15E02A1B2146D548E5
:1002A000683005F014FE0EE02A1B2146D1486A3062
:1002B00005F00DFE07E02A1B2146CE48763005F0FA
:1002C00006FE00E000BF00BF2C460120C94981F8AE
:1002D00051009DF80000412803D1012081F87800E9
:1002E00007E09DF80000562803D10020C14981F89D
:1002F000780002E00220FFF78FFF701CC6B2062EC6
:100300009EDDF8BD2DE9F04F89B08246002405E05E
:100310001AF804002E2800D104E0641C1AF8040026
:100320000028F5D100BFA4F101092AE0A4EB0901DE
:10033000481E07F0CCFE07463A460B460020B2495D
:1003400006F012FFCDE900011AF80910A1F1300002
:1003500007F0BDFE0546DDE9002307F00BFFCDE900
:100360000401584607F0B3FECDE90201DDE904239C
:1003700007F06AFCCDE9060107F07AFE8346A9F191
:100380000109B9F1000FD1DA584609B0BDE8F08F84
:100390001CB502F02FFD4FF4A06001F02BF84FF4D4
:1003A000165002F0A9FD00F0E1FE40F2E7314720CF
:1003B00000F060FF1921954805F008FE4FF4165033
:1003C00000F094FF04F06CFB4FF4FA7002F04FFD64
:1003D000012004F07CFB02F02BFE8D488D49086063
:1003E0008D488E4908606BE182485D30FFF78AFFD7
:1003F0008B4908607F486A30FFF784FF89490860AD
:100400007C485230FFF77EFF874908600846006845
:1004100086490844844908608148006808F06AFBFE
:10042000804608F0B7F906460022814B07F0C8FC69
:10043000044607F0D7FB774908607A48006808F05F
:1004400059FB804608F0A6F906460022784B07F0D3
:10045000B7FC044607F0C6FB7049086072480068A4
:1004600008F048FB804608F095F906460022714BDB
:1004700007F0A6FC044607F0B5FB6F490860FFF7DC
:10048000D2FEFFF7B9FE6D48006800287ED101203A
:100490006B4940238022CDE900100021084600F07E
:1004A000E7FD0120102367A200210090084600F01C
:1004B0009BFC01201023002211460090182000F020
:1004C00009FD01201023024600210090282000F0A1
:1004D00001FD01201023022200210090382000F0AD
:1004E000F9FC01201023032200210090482000F095
:1004F000F1FC01201023042219460090002000F096
:10050000E9FC01201023052219460090184600F04E
:10051000E1FC4048006808F03DF9044622460B46DD
:1005200049A14B4805F062FB01201023484A1946B7
:100530000090202000F058FC0120102306222021EA
:100540000090002000F0C6FC01201023072220218B
:100550000090184600F0BEFC3048006808F01AF918
:10056000044622460B4638A1394805F03FFB0120DE
:100570001023374A21210090202000F035FC012073
:100580001023082230210090002000E02EE000F02F
:10059000A1FC01201023092230210090184600F010
:1005A00099FC012010230A2230210090202000F025
:1005B00091FC012010230B2230210090084600F00E
:1005C00089FC1D48006808F0E5F8044622460B4601
:1005D00020A11F4805F00AFB012010231C4A3021EE
:1005E0000090402000F000FC00F039FA1B48016840
:1005F000084835E0020D00204552524F5225640D47
:100600000A0000002C00000000002440430E0020DF
:10061000D7A360400C040020F6A8924210040020EA
:100620000004002004040020080400208038010099
:10063000000059400088C340280400201404002012
:100640007804002042445300252E3266000000004A
:1006500078080020252E3466000000001C040020CD
:10066000006808F073FB06D3164801681648006856
:1006700008F06CFB0ED201201449086000F0EFF97D
:100680000120134940238022CDE9001000210846B3
:1006900000F0EEFC0F4801680F48006808F056FAB9
:1006A00009D2084801680848006808F04FFA02D2E9
:1006B00000200649086002F08FFD084804F0B7FBEF
:1006C00092E6000020040020100400201404002002
:1006D000000000201C0400200C040020430E002019
:1006E000704700BFFEE700BFFEE700BFFEE700BFA8
:1006F000FEE77047704770470CB5002001900090EE
:100700006C48006840F480306A49086000BF69485E
:10071000006800F4003000900198401C019000989F
:1007200018B90198B0F5A06FF1D16248006800F4E3
:10073000003010B10120009001E0002000900098EE
:10074000012843D15C48006840F010005A49086015
:100750000846006820F0030008600846006840F082
:1007600002000860534840685249486008464068A3
:1007700048600846406840F4806048600846406829
:1007800020F47C1048600846406840F4E810486057
:100790000846006840F08070086000BF4548006867
:1007A00000F000700028F9D04248406820F00300B3
:1007B000404948600846406840F00200486000BF79
:1007C0003C48406800F00C000828F9D10CBD10B579
:1007D000FFF792FF10BD10B53648006840F00100E9
:1007E0003449086008464068344908403149486047
:1007F00008460068324908402E49086008460068EB
:1008000020F4802008600846406820F4FE0048601C
:100810004FF41F008860FFF7DAFF4FF000602949AE
:10082000086010BD10B5002100200022214B5B683C
:1008300003F00C0121B1042906D0082928D107E0D2
:10084000214B224C236027E01F4B204C236023E0E8
:10085000184B5B6803F47010164B5B6803F480322E
:10086000022303EB904022B9194B4343174C2360FA
:100870000DE0104B5B6803F4003323B1144B43438A
:10088000124C236003E0104B4343104C236003E001
:100890000D4B0E4C236000BF00BF064B5B68C3F3DB
:1008A00003130C4CE15C094B1B68CB40074C2360E5
:1008B00010BD000000100240002002400000FFF8C0
:1008C000FFFFF6FE08ED00E000127A002C04002085
:1008D00000093D0030040020032000BF011EA0F1EC
:1008E0000102D0B2FAD1704710B50821F84800F0E3
:1008F000FEFE0421F64800F0F8FEFFF7EDFF0821A8
:10090000F34800F0F2FE10BD10B50821F04800F0E9
:10091000ECFEFFF7E1FF0421ED4800F0E6FEFFF7F3
:10092000DBFF0421EA4800F0E2FEFFF7D5FF10BD2F
:1009300070B5044600251BE004F0800020B10821BA
:10094000E34800F0D2FE03E00821E14800F0CFFECA
:10095000FFF7C2FF0421DE4800F0C7FEFFF7BCFF2F
:100960000421DB4800F0C3FE6006040E681CC5B21B
:10097000082DE1DB70BD10B50821D54800F0B5FEAB
:100980000421D34800F0B1FEFFF7A6FF0821D048AC
:1009900000F0ADFEFFF7A0FF0421CD4800F0A7FE58
:1009A000FFF79AFF10BD70B505460C46FFF7E3FF51
:1009B0007820FFF7BDFFFFF7A7FF1CB14020FFF72E
:1009C000B7FF02E00020FFF7B3FFFFF79DFF2846C7
:1009D000FFF7AEFFFFF798FFFFF786FF70BD10B57A
:1009E00004461CB90021A620FFF7DDFF012C03D12E
:1009F0000021A720FFF7D7FF10BD10B504463CB972
:100A00000021C820FFF7CFFF0021A120FFF7CBFF77
:100A1000012C07D10021C020FFF7C5FF0021A02035
:100A2000FFF7C1FF10BD10B500218D20FFF7BBFF00
:100A300000211420FFF7B7FF0021AF20FFF7B3FF1D
:100A400010BD10B500218D20FFF7ADFF0021102053
:100A5000FFF7A9FF0021AE20FFF7A5FF10BD70B57D
:100A600000242BE004F1B001C8B20021FFF79BFF86
:100A700000210846FFF797FF00211020FFF793FFA2
:100A8000FFF779FF7820FFF753FFFFF73DFF402086
:100A9000FFF74EFFFFF738FF002509E08D4901EB16
:100AA000C501085DFFF744FFFFF72EFF681CC5B2C4
:100AB000802DF3DBFFF718FF601CC4B2082CD1DBDC
:100AC00070BD70B500240CE0002506E000208149CF
:100AD00001EBC5010855681CC5B2802DF6DB601C12
:100AE000C4B2082CF0DBFFF7BAFF70BDF0B51446B6
:100AF0000B46CF1701EB5777C7F3C702CF1701EBB0
:100B00005777FF10A1EBC707FEB20123B340DDB258
:100B10004CB1704B03EBC0039B5C2B436D4F07EB59
:100B2000C007BB541AE06B4B03EBC0039B5CDB4379
:100B3000684F07EBC007BB54664B03EBC0039B5CDD
:100B40002B43644F07EBC007BB54624B03EBC0035E
:100B50009B5CDB435F4F07EBC007BB54F0BD2DE947
:100B6000FF4F84B081468A46002002908346069853
:100B7000A0EB09040798A0EB0A06CDF80490CDF885
:100B800000A0002C01DD012705E00CB9002702E0E0
:100B90004FF0FF376442002E02DD4FF0010806E0FF
:100BA00016B94FF0000802E04FF0FF386642B44239
:100BB00001DD254600E03546002003901EE0009A46
:100BC000D1B2019AD0B2119AFFF790FF0298204457
:100BD0000290B3440298A84205DD0298401B02909F
:100BE000019838440190AB4504DDABEB050B009850
:100BF000404400900398401C80B20390691C039805
:100C00008842DCDB08B0BDE8F08F2DE9F0430646F2
:100C10000F4690460025444643E03A1BD1B2721974
:100C2000D0B20122FFF762FF3A1BD1B2721BD0B2E1
:100C30000122FFF75BFF3A19D1B2721BD0B2012239
:100C4000FFF754FF3A19D1B27219D0B20122FFF75F
:100C50004DFF7A19D1B23219D0B20122FFF746FF07
:100C60007A1BD1B23219D0B20122FFF73FFF7A1BB3
:100C7000D1B2321BD0B20122FFF738FF7A19D1B2BC
:100C8000321BD0B20122FFF731FF6D1C05FB05F0CE
:100C900004FB040008FB1809B9F1000F01DD641E14
:100CA0006D1E6000604308FB08F18842B5DABDE8BC
:100CB000F0832DE9FE4F0746884692461C46019771
:100CC000CDF80080082C07D14FF0060924E0000081
:100CD00000080140820800202046E31704EB53730C
:100CE000DB1021464FEAE47C04EB5C7C4FEAEC0C21
:100CF000A4EBCC0CBCF1000F02D04FF0010C01E0D2
:100D00004FF0000C6344224604EBD27C4FEA6C0C9B
:100D100003FB0CF303F0FF09AAF12000C6B2002583
:100D20005EE0082C07D106EB4600FE4901EB4000CF
:100D300010F805B01DE00C2C07D106EB4600FA496F
:100D400001EB800010F805B013E0102C05D1F74836
:100D500000EB061010F805B00BE0182C07D106EBDD
:100D6000C600F34901EB800010F805B001E0BDE8D2
:100D7000FE8F002002901CE00BF0010028B14146DC
:100D800038460C9AFFF7B2FE09E00C9808B901202A
:100D900000E00020024641463846FFF7A7FE4FEA32
:100DA0006B0B08F1010000F0FF080298401CC0B274
:100DB000029002980828DFDB781CC7B2082C0BD001
:100DC00004EBD4714A100199791A8A4204D1019F27
:100DD00000980830C0B20090DDF80080681CC5B2F1
:100DE0004D459EDB00BFC2E72DE9F84106460F46A0
:100DF00014461D46DDF81C8013E0CDF800802278F3
:100E00002B4639463046FFF754FF082D02D1B01D5E
:100E1000C6B205E0284605EBD07106EB6101CEB203
:100E2000641C2078202802DB20787E28E5DDBDE8E0
:100E3000F88110B50246012000E050430B1EA1F1DD
:100E40000104E1B2F9D110BD2DE9FF4F82B0064691
:100E500091461F46DDE90F4A4FF0000B082C01D1E7
:100E60004FF0020B002530E0781B401EC1B20A2073
:100E7000FFF7DFFFB9FBF0F00A21B0FBF1F201FB55
:100E80001208B8F1000F0ED104EBD4710BEB610125
:100E900001FB0561C8B223463022CDE900A40399C5
:100EA000FFF707FF0FE004EBD4710BEB610101FBCF
:100EB0000561C8B208F13001CAB22346CDE900A4E9
:100EC0000399FFF7F6FE681CC5B2BD42CCDB06B045
:100ED000BDE8F08F2DE9FC4F0746884616461C46B4
:100EE000BB46CDF804802046E21704EB5272D210C4
:100EF0002146E31704EB5373DB10A4EBC3030BB1E0
:100F0000012300E000231A44624392B200920025BC
:100F100055E0102C05D1874800EB461010F805A0CD
:100F20001BE0182C07D106EBC600834901EBC0007B
:100F300010F805A011E0202C05D1804800EBC61068
:100F400010F805A009E0402C05D17D4800EB4620B3
:100F500010F805A001E0BDE8FC8F4FF000091CE08F
:100F60000AF0010028B1414638460B9AFFF7BEFD52
:100F700009E00B9808B9012000E000200246414634
:100F80003846FFF7B3FD4FEA6A0A08F1010000F0A6
:100F9000FF0809F1010000F0FF09B9F1080FDFDBDC
:100FA000781CC7B2A7EB0B00A04204D15F460198A2
:100FB0000830C0B20190DDF80480681C85B200984A
:100FC0008542A6DB00BFC6E708B580468946924643
:100FD000002600274BE04FB910233246182180200D
:100FE000CDF800A0FFF776FF701CC6B2464522D1AF
:100FF0004FF0000B1AE0012410E000250AE05148F0
:1010000000EBC400415D601E4E4A02EBC00041553A
:10101000681CC5B2082DF2DB601CC4B2902CECDB5E
:10102000FFF71DFD0BF1010000F0FF0B4FEA091067
:101030005845E0DC0026781CC7B2102F00D10027ED
:10104000012410E000250AE03E4800EBC400415DA9
:10105000601E3C4A02EBC0004155681CC5B2082D19
:10106000F2DB601CC4B2902CECDBFFF7F8FCB2E7BB
:101070002DE9FF4F05460E4617461C46DDF8389011
:101080004FF0000A0095B3462046E21704EB527277
:10109000D2102146E31704EB5373DB10A4EBC30318
:1010A0000BB1012300E000231A44D4B24FF0000832
:1010B00058E0002003904EE00D9810F80A000290CE
:1010C0000AF101001FFA80FA002001901DE0029849
:1010D00000F0010028B14A4631462846FFF706FDD8
:1010E0000AE0B9F1000F01D1012000E00020024622
:1010F00031462846FFF7FAFC029840100290701C17
:10110000C6B20198401CC0B2019001980828DEDBED
:10111000681CC5B20098281AB84217D1009D0BF17F
:10112000080011E08E8F0008B69100082A9600088A
:101130001A9C000876A90008F6AA00083EAB000831
:10114000BEAB00088208002000F0FF0B5E4603984B
:10115000401CC0B203900398B842ADDB08F1010017
:1011600000F0FF08A045A4DBBDE8FF8F08B5012112
:10117000042000F0C9FC0C20ADF8000014208DF80C
:10118000030003208DF802006946394800F000FA98
:101190000C21374800F0A9FA0021AE20FFF703FC2C
:1011A00000210846FFF7FFFB00211020FFF7FBFBA3
:1011B00000214020FFF7F7FB00218120FFF7F3FB20
:1011C0000021CF20FFF7EFFB0021A120FFF7EBFB71
:1011D0000021C820FFF7E7FB0021A620FFF7E3FB73
:1011E0000021A820FFF7DFFB00213F20FFF7DBFBFA
:1011F0000021D320FFF7D7FB00210846FFF7D3FBE0
:101200000021D520FFF7CFFB00218020FFF7CBFB8B
:101210000021D920FFF7C7FB0021F120FFF7C3FB16
:101220000021DA20FFF7BFFB00211220FFF7BBFBF4
:101230000021DB20FFF7B7FB00213020FFF7B3FBD5
:1012400000212020FFF7AFFB00210220FFF7ABFBBE
:1012500000218D20FFF7A7FB00211420FFF7A3FB3F
:10126000FFF72FFC0021AF20FFF79DFB08BD00001A
:10127000000801407FB505460C460121022000F020
:1012800050FCADF80850ADF804400020ADF80A005D
:10129000ADF8060001A9144800F072FF01221146C2
:1012A000114801F0E4FA1D208DF8000000208DF8AF
:1012B000010003208DF8020001208DF8030068462C
:1012C00000F09DF80121084801F0B6FA7FBD10B585
:1012D0000121054801F079FD28B10121024801F002
:1012E00085FD01F0A4FF10BD0004004010B586B0DC
:1012F00004460121082000F007FC0121880400F0C9
:1013000010FC4FF48060ADF8140003208DF8160037
:1013100018208DF8170005A9244800F039F94FF47A
:101320000060ADF8140004208DF8170005A91F48CF
:1013300000F02EF927208DF8000003208DF8010021
:101340008DF8020001208DF80300684600F057F880
:1013500001940020ADF80800ADF80A00ADF80C00CB
:10136000ADF810000C20ADF80E0001A9104800F0F7
:1013700072FC012240F225510D4800F004FD0121CC
:101380000B4800F0F4FC06B010BD08B540F2255142
:10139000074800F0DDFD40B1054800F059FDC0B23E
:1013A00000900121684602F021F808BD000C0140C0
:1013B000004800400948804709480047FEE7FEE72B
:1013C000FEE7FEE7FEE7FEE7FEE7FEE7FEE7FEE7F5
:1013D00004480549054A064B70470000D707000836
:1013E000ED00000878100020781600207812002008
:1013F0007812002031490143314A1160704770B5BD
:10140000002100230F22C47804B32D4C246804F477
:10141000E064C4F5E064210AC1F10403CA404478E1
:1014200004FA03F18478144021430901254C06781D
:10143000A155047804F01F050124AC4005786D1116
:10144000AD0005F1E025C5F8004109E0047804F09D
:101450001F050124AC401C4D0678761145F8264046
:1014600070BD1A4A0A400243154B1B1F1A60704791
:1014700039B1134A121D12680243114B1B1D1A6029
:1014800006E00F4A121D126882430D4B1B1D1A60A5
:101490007047042808D14FF0E021096941F00401A8
:1014A0004FF0E022116107E04FF0E021096921F0DF
:1014B00004014FF0E0221161704700000000FA05BE
:1014C0000CED00E000E400E080E100E080FFFF1FA1
:1014D00010B50446CC48844208D10121042000F014
:1014E0002DFB0021042000F029FB46E0C748844280
:1014F00008D10121082000F021FB0021082000F084
:101500001DFB3AE0C248844208D10121102000F0BE
:1015100015FB0021102000F011FB2EE0BD48844295
:1015200008D10121202000F009FB0021202000F03B
:1015300005FB22E0B848844208D10121402000F098
:10154000FDFA0021402000F0F9FA16E0B348844289
:1015500008D10121802000F0F1FA0021802000F064
:10156000EDFA0AE0AE48844207D10121801500F06F
:10157000E5FA0021A01500F0E1FA10BD10B5012137
:10158000084600F0DBFA0021012000F0D7FA10BD78
:101590002DE9F0410246002500260020002300240A
:1015A000002791F803C00CF00F0591F803C00CF070
:1015B000100CBCF1000F03D091F802C04CEA0505F5
:1015C00091F800C0BCF1000F31D0146800202BE06E
:1015D0004FF0010C0CFA00F3B1F800C00CEA03065E
:1015E0009E4220D183004FF00F0C0CFA03F7BC434E
:1015F00005FA03FC4CEA040491F803C0BCF1280F7F
:1016000006D14FF0010C0CFA00FCC2F814C00AE03D
:1016100091F803C0BCF1480F05D14FF0010C0CFA52
:1016200000FCC2F810C0401C0828D1D31460B1F8E7
:1016300000C0BCF1FF0F34DD546800202EE000F143
:10164000080C4FF0010808FA0CF3B1F800C00CEADE
:1016500003069E4221D183004FF00F0C0CFA03F7D2
:10166000BC4305FA03FC4CEA040491F803C0BCF146
:10167000280F05D100F1080C08FA0CF8C2F8148004
:1016800091F803C0BCF1480F07D100F1080C4FF0EE
:10169000010808FA0CF8C2F81080401C0828CED3C4
:1016A0005460BDE8F0814FF6FF7101800221817026
:1016B0000421C17070470246002093680B400BB1B3
:1016C000012000E0002070470146886880B2704722
:1016D00002460020D3680B400BB1012000E000203F
:1016E00070470146C86880B2704701617047416128
:1016F00070470AB1016100E041617047C160704705
:101700004FF480320A438261816182618269826919
:10171000704702460020434B18684FF6807318400C
:1017200040EA021008433F4B186070473E49C861C9
:101730007047F0B50A46002300240021002500F080
:101740000046B6F1004F02D1364EF16901E0354E48
:101750007168C0F3034583B200F44016B6F5401F2C
:1017600008D121F070612F4E766826F070662D4FFB
:101770007E6012E000F48016B6F5801F06D10326C5
:1017800006FA05F4A14341F0706106E0460D36010A
:1017900003FA06F6B14341F0706122B1460D3601FD
:1017A00003FA06F6314300F00046B6F1004F02D1CD
:1017B0001C4EF16101E01B4E7160F0BD30B500229E
:1017C0008B071C0F0F2303FA04F2164B08338C10FF
:1017D00053F824309343134C08348D1044F82530CB
:1017E00023468C1053F824308C07240F00FA04F49D
:1017F00023430C4C08348D1044F8253030BD0A4981
:10180000DC3108607047000000080140000C014016
:10181000001001400014014000180140001C01406C
:10182000002001400000014000002042DF48006825
:1018300040F00100DD49086008464068DC49084086
:10184000DA49486008460068DA490840D749086024
:101850000846006820F4802008600846406820F4AC
:10186000FE0048604FF41F0088607047CF49096848
:1018700021F48031CD4A11601146096821F480219C
:101880001160B0F5803F03D0B0F5802F0ED106E097
:10189000C649096841F48031C44A116007E0C34970
:1018A000096841F4A021C14A116000E000BF00BFF7
:1018B000704710B501460022002300204A11012A7A
:1018C00002D1BA4C236806E0022A02D1B74C236A3F
:1018D00001E0B64C636A01F01F02012494401C40F1
:1018E0000CB1012000E0002010BD38B500200090B0
:1018F0000024002500BF3120FFF7DBFF05460098DC
:10190000401C00900098B0F5A06F01D0002DF2D0DF
:101910003120FFF7CEFF08B1012400E0002420466B
:1019200038BD01460020A14A106820F0F80040EAC6
:10193000C10010607047A04908607047024600204F
:101940009A4B586820F47C1042EA01031843974BE5
:101950005860704798490866704701460020934ACE
:10196000506820F003000843506070478F4840687B
:1019700000F00C007047014600208C4A506820F0AF
:10198000F00008435060704701460020874A5068C5
:1019900020F4E06008435060704701460020834A0D
:1019A000506820F4605040EAC1005060704729B18F
:1019B0007E4A527A02437D4B5A7204E07B4A527A45
:1019C00082437A4B5A7270477B49D831086070471E
:1019D00001460020754A506820F44040084350609A
:1019E00070470021714A20321170704A82F820102D
:1019F000012802D004280AD104E001216B4A2032D8
:101A0000117005E00521694A2032117000E000BF25
:101A100000BF70476949086070476449096A01431B
:101A2000624A11627047654944390860704730B5B1
:101A300000210022002400235C4D6D6805F00C019C
:101A400021B1042905D0082923D105E05C4D0560AA
:101A500022E05B4D05601FE0544D6D6805F4701287
:101A6000524D6D6805F48034022505EB92421CB995
:101A7000544D554305600BE04C4D6D6805F4003541
:101A80001DB1504D5543056002E04D4D5543056075
:101A900002E04B4D056000BF00BF444D6D6805F08E
:101AA000F0010909484D6B5C0568DD4045603F4D1C
:101AB0006D6805F4E061090A434D6B5C4568DD40E3
:101AC00085603A4D6D6805F46051C90A3E4D6B5C06
:101AD0004568DD40C560354D6D6805F44041890BB2
:101AE0003A4D6B5CC568B5FBF3F5056130BD29B1B6
:101AF0002E4A526902432D4B5A6104E02B4A526927
:101B000082432A4B5A61704729B1284A926902439D
:101B1000264B9A6104E0254A92698243234B9A61DD
:101B2000704729B1214AD2690243204BDA6104E0AF
:101B30001E4AD26982431D4BDA61704729B11B4AA4
:101B4000D2680243194BDA6004E0184AD268824333
:101B5000164BDA60704729B1144A12690243134BDD
:101B60001A6104E0114A12698243104B1A617047EE
:101B700012494039086070470F49C86470470B49E3
:101B8000C87170470948406A40F080700749486250
:101B9000704701460020054A92680A400AB10120B8
:101BA00000E0002070470149887270470010024031
:101BB0000000FFF8FFFFF6FE0000424280044242B0
:101BC00000127A0000093D0040040020500400206B
:101BD00010B50446FB48844209D101218803FFF770
:101BE000ADFF00214FF48040FFF7A8FF32E0F64838
:101BF000844209D101214804FFF7ADFF00214FF4D1
:101C00000030FFF7A8FF25E0F048844209D1012108
:101C10008804FFF7A0FF00214FF48020FFF79BFF0F
:101C200018E0EB48844209D10121C804FFF793FF73
:101C300000214FF40020FFF78EFF0BE0E5488442BF
:101C400008D101210805FFF786FF00214FF480101D
:101C5000FFF781FF10BD2DE9F04786B005460E461F
:101C60000024A24600BFA1460027B08900B100BFF2
:101C70002F462C8A4CF6FF700440F08804432C82D7
:101C8000AC894EF6F3100440B0883189084371895D
:101C900008430443AC81AC8A4FF6FF400440B0894E
:101CA0000443AC8201A8FFF7C2FEC648874202D1B6
:101CB000DDF810A001E0DDF80CA0A88900F40040D8
:101CC00040B10AEBCA0000EB0A1031684900B0FBD2
:101CD000F1F807E00AEBCA0000EB0A10316889004E
:101CE000B0FBF1F86420B8FBF0F004012009642196
:101CF00001FB1089A88900F4004040B1322000EBBC
:101D0000C900B0FBF1F000F00700044308E0322006
:101D100000EB09106421B0FBF1F000F00F00044368
:101D20002C8106B0BDE8F0874FF416510160002108
:101D30008180C18001810C21418100218181704716
:101D400010B502460020108A4FF2FF0318400B889E
:101D50004C8823438C882343CC8823431843108228
:101D600010BD0021018041808180C180704721B178
:101D7000828942F40052828104E082894DF6FF7329
:101D80001A4082817047F0B50346002400260025E2
:101D9000002040F66A17B94200D100BF1846C1F3CF
:101DA000421401F01F06012707FA06F5012C01D1A4
:101DB0000C3004E0022C01D1103000E014301AB1D4
:101DC00007682F43076002E00768AF430760F0BD74
:101DD0001AB1838A0B43838202E0838A8B43838216
:101DE0007047028A4FF6F0731A400282028A0A4351
:101DF0000282704782894FF2FF731A408281828982
:101E00000A438281704721B1828942F002028281B5
:101E100004E082894FF6FD731A4082817047028A7E
:101E20004FF6DF731A400282028A0A430282704729
:101E300021B1028A42F48042028204E0028A4BF617
:101E4000FF731A4002827047C1F308028280704714
:101E500001468888C0F308007047818941F001017C
:101E600081817047028BD2B20283028B42EA012247
:101E700002837047028B02F47F420283028B0A4383
:101E80000283704721B1828A42F02002828204E0FC
:101E9000828A4FF6DF731A408282704721B1828AAC
:101EA00042F01002828204E0828A4FF6EF731A40F9
:101EB0008282704721B1828A42F00802828204E065
:101EC000828A4FF6F7731A408282704721B1828965
:101ED00042F40042828103E08289C2F30E028281D1
:101EE000704721B1828A42F40062828204E0828AD1
:101EF0004FF2FF731A4082827047828A4FF6FB735B
:101F00001A408282828A0A438282704721B1828A81
:101F100042F00202828204E0828A4FF6FD731A4088
:101F20008282704702460020B1F5007F00D100BFD9
:101F300013880B400BB1012000E00020704701F432
:101F40000072B2F5007F00D100BFCA430280704723
:101F500070B50246002400230025002040F66A16D2
:101F6000B14200D100BFC1F3421501F01F030126A9
:101F700006FA03F3012D02D19689334006E0022DC3
:101F800002D1168A334001E0968A33400C120126B2
:101F900006FA04F41688344013B10CB1012000E0B5
:101FA000002070BD10B50022002340F66A14A14243
:101FB00000D100BF0A1201249440A3B2DC43048084
:101FC00010BD0000003801400044004000480040BF
:101FD000004C00400050004010B50446FE488442CA
:101FE00008D10121C014FFF7A9FD0021E014FFF77B
:101FF000A5FDC4E0B4F1804F08D101210846FFF7E8
:10200000AAFD00210120FFF7A6FDB8E0F3488442B5
:1020100008D101210220FFF79EFD00210220FFF7D9
:102020009AFDACE0EE48844208D101210420FFF77C
:1020300092FD00210420FFF78EFDA0E0E9488442D4
:1020400008D101210820FFF786FD00210820FFF7B5
:1020500082FD94E0E448844208D101211020FFF77A
:102060007AFD00211020FFF776FD88E0DF488442EA
:1020700008D101212020FFF76EFD00212020FFF76D
:102080006AFD7CE0DA48844208D101214014FFF760
:1020900055FD00216014FFF751FD70E0D5488442E2
:1020A00009D10121C804FFF749FD00214FF40020A8
:1020B000FFF744FD63E0D048844209D101210805BF
:1020C000FFF73CFD00214FF48010FFF737FD56E08D
:1020D000CA48844209D101214805FFF72FFD00219C
:1020E0004FF40010FFF72AFD49E0C548844208D1AB
:1020F00001214020FFF72FFD00214020FFF72BFD9D
:102100003DE0C048844208D101218020FFF723FD33
:1021100000218020FFF71FFD31E0BB48844208D139
:1021200001218015FFF717FD0021A015FFF713FD12
:1021300025E0B648844209D101210804FFF7FEFCDE
:1021400000214FF48030FFF7F9FC18E0B0488442DA
:1021500009D101214804FFF7F1FC00214FF40030C0
:10216000FFF7ECFC0BE0AB48844208D10121880466
:10217000FFF7E4FC00214FF48020FFF7DFFC10BDE7
:1021800000220288944B98420ED0994B98420BD073
:10219000B0F1804F08D0914B984205D0904B9842B7
:1021A00002D0904B984204D14FF68F731A404B885F
:1021B0001A438D4B984207D08C4B984204D04FF66F
:1021C000FF431A40CB881A4302808B8883850B8893
:1021D0000385814B98420BD0854B984208D08B4B9E
:1021E000984205D08A4B984202D08A4B984201D13E
:1021F0000B7A038601238382704770B50024002286
:102200000023058C4FF6FE7635400584028C8388CA
:10221000048B4FF68F752C40B51E2C400D882C4337
:10222000751E2A400D892A434D882A436A4DA842CB
:102230000BD06F4DA84208D0744DA84205D0744D04
:10224000A84202D0734DA84213D14FF6F7752A4029
:102250004D892A434FF6FB752A408D882A434FF655
:10226000FF652B404FF6FF552B408D892B43CD89C1
:102270002B4383800483CD888586028470BD70B52E
:10228000002400220023058C4FF6EF7635400584AC
:10229000028C8388048B48F6FF752C404FF6FF456F
:1022A0002C400D884FF6FF7606EA05252C434FF6A5
:1022B000DF752A400D8906EA05152A434D8806EA8E
:1022C00005152A43444DA84202D0494DA8421DD1CC
:1022D0004FF67F752A404D894FF6FF7606EA0515C1
:1022E0002A434FF6BF752A408D8806EA05152A4312
:1022F0004FF6FF352B404FF2FF752B408D8906EAD4
:1023000085052B43CD8906EA85052B43838004830D
:10231000CD880587028470BD70B50024002200239B
:10232000058C4FF6FF6635400584028C8388848BCC
:102330004FF68F752C404FF6FC752C400D882C43C2
:102340004FF6FF552A400D894FF6FF7606EA052520
:102350002A434D8806EA05252A431F4DA84202D08C
:10236000234DA8421DD14FF2FF752A404D894FF6EB
:10237000FF7606EA05252A434FF6FF352A408D8869
:1023800006EA05252A434EF6FF752B404DF6FF75EC
:102390002B408D8906EA05152B43CD8906EA0515E4
:1023A0002B4383808483CD888587028470BD70B57C
:1023B000002200230024058C4EF6FF76354005846C
:1023C000038C8488828B48F6FF752A404FF6FF45C0
:1023D0002A400D8820E00000002C0140000400404D
:1023E00000080040000C00400010004000140040B5
:1023F00000340140004C01400050014000540140B5
:1024000000180040001C0040002000400040014037
:1024100000440140004801404FF6FF7606EA0525DA
:102420002A434DF6FF752B400D8906EA05352B43EF
:102430004D8806EA05352B43FA4DA84202D0FA4DE5
:10244000A84208D14BF6FF752C408D894FF6FF76D8
:1024500006EA85152C4384808283CD88A0F84050FD
:10246000038470BD828B4FF2FF331A408283828BCC
:102470004FF6FF7303EA01231A4382837047F0B5D6
:102480000C461546002200210026078C4EF6FF7CE4
:1024900007EA0C070784828B018C4FF6FF7707EA67
:1024A000043640F6FF473A404FF6FF7707EA052724
:1024B0003A434FF6FF7707EA03373A43D94FB8421A
:1024C0000ED0D94FB8420BD0B0F1804F08D0D74FC3
:1024D000B84205D0D64FB84202D0D64FB84206D146
:1024E0004DF6FF77394046F48057394305E047F60B
:1024F000FF57394044F48057394382830184F0BD4B
:10250000828B4FF6F3731A408283828B0A43828355
:102510007047F0B50C461546002200210026078CB6
:102520004FF6FF6C07EA0C070784828B018C4FF68D
:10253000FF7707EA04264FF60C773A404FF6FF770D
:1025400007EA03172F433A43B64FB8420ED0B64FAF
:10255000B8420BD0B0F1804F08D0B44FB84205D08C
:10256000B34FB84202D0B34FB84206D14FF6FF572F
:10257000394046F48077394305E04FF2FF57394040
:1025800044F48077394382830184F0BD028B4FF29B
:10259000FF331A400283028B4FF6FF7303EA0123D5
:1025A0001A4302837047F0B50C46154600220021FD
:1025B0000026078C4FF6EF7C07EA0C070784028B96
:1025C000018C4FF6FF7707EA041640F6FF473A40C2
:1025D0004FF6FF7707EA03373A434FF6FF7707EAEC
:1025E00005273A438F4FB8420ED08F4FB8420BD0D9
:1025F000B0F1804F08D08D4FB84205D08C4FB84213
:1026000002D08C4FB84206D14FF6DF77394046F002
:102610001007394305E04FF65F77394044F0100763
:10262000394302830184F0BD028B4FF6F3731A40E5
:102630000283028B0A4302837047F0B50C461546AD
:1026400000220021068C4FF6FE773E400684028B66
:10265000018C4FF60C7632407E1C06EA03162E43A0
:102660003243704EB0420ED06F4EB0420BD0B0F13C
:10267000804F08D06D4EB04205D06D4EB04202D0B2
:102680006C4EB04206D14FF6FD76314044F0010663
:10269000314305E04FF6F576314044F00106314311
:1026A00002830184F0BD70B505460C465D48854245
:1026B0000ED05D4885420BD0B5F1804F08D05B4805
:1026C000854205D05A48854202D05A48854200D1F9
:1026D00000E000BF208850B92389A288618828467D
:1026E000FFF7ABFFE1882846FFF79EFF25E0208833
:1026F00004280AD12389A28861882846FFF753FF5E
:10270000E1882846FFF742FF17E0208808280AD111
:102710002389A28861882846FFF7FBFEE1882846C6
:10272000FFF7EEFE09E02389A28861882846FFF7BB
:10273000A6FEE1882846FFF795FE70BD2DE9F04121
:1027400005460C4600260127608808B9022600E0ED
:102750000026A088012801D1022700E00127208857
:10276000A0B92389A28861882846FFF766FFE1881F
:102770002846FFF759FF23893A4631462846FFF796
:1027800012FFE1882846FFF701FF13E02389A288A2
:1027900061882846FFF707FFE1882846FFF7F6FE25
:1027A00023893A4631462846FFF747FFE188284605
:1027B000FFF73AFFBDE8F0810A884B881A438B88FF
:1027C0001A43CB881A430B891A434B891A438B89C6
:1027D0001A43A0F8442070474FF6FF718180002112
:1027E0000180C180418001727047002101804180D9
:1027F0008180C180018141818181C1817047002137
:1028000001804180012181800021C18001817047C8
:102810000021018041808180C180018141818181CD
:1028200070470000002C01400034014000040040CB
:1028300000080040000C004021B1028842F0010273
:10284000028004E002884FF6FE731A40028070474F
:1028500031B1B0F8442042F40042A0F8442005E031
:10286000B0F84420C2F30E02A0F8442070471AB119
:1028700083890B43838102E083898B438381704783
:102880008182704741EA0203A0F8483070471AB1CC
:1028900083890B43838102E083898B438381704763
:1028A00001894FF6F8721140018170470A460021F4
:1028B00001894FF68F73194011430181704730B57C
:1028C00004460D4629462046FFF7F0FF208940F0D8
:1028D0000700208130BD2DE9F04104460D46164623
:1028E0001F46602D06D13B46012231462046FFF7A8
:1028F0005AFE05E03B46012231462046FFF79DFE89
:1029000029462046FFF7D2FF208940F007002081AA
:10291000BDE8F08130B50C4600210189C9B24FF6FF
:10292000FF7505EA0325154325432943018130BD81
:102930002DE9F04105460E461746984600244346C9
:102940003A4631462846FFF7E5FF2C894FF6F870E6
:10295000044044F007044FF68F70044044F07004C4
:102960002C81BDE8F081F0B504460D4616461F46A1
:102970003B46324629462046FFF7CCFF208940F4EB
:1029800080402081F0BD0185828270470A46002187
:1029900001884FF68F731940114301807047F0B5DD
:1029A0000C4615461E460021002200230189028B99
:1029B000038C4FF6F877394021434FF6FC473A40F5
:1029C00040F201173A434FF6DD773B404FF6FF7771
:1029D00007EA06172F433B43018102830384F0BDBE
:1029E0000A460021018B4FF68F7319401143018372
:1029F00070470A460021018B48F6FF7319404FF6D5
:102A0000FF7303EA02231943018370470A4600213A
:102A1000818B4FF68F7319401143818370470A46AB
:102A20000021818B48F6FF7319404FF6FF7303EACC
:102A3000022319438183704721B1028842F080024A
:102A4000028004E002884FF67F731A4002807047CC
:102A500021B1828842F00402828004E082884FF62D
:102A6000FB731A408280704721B1828842F00802CD
:102A7000828004E082884FF6F7731A4082807047A4
:102A800021B1828842F00102828004E082884FF600
:102A9000FE731A40828070470A460021018B4FF670
:102AA000F77319401143018370470A460021018BD7
:102AB0004FF2FF7319404FF6FF7303EA02231943E5
:102AC000018370470A460021818B4FF6F773194046
:102AD0001143818370470A460021818B4FF2FF73B7
:102AE00019404FF6FF7303EA0223194381837047AD
:102AF0000A460021018B4FF6FB73194011430183F5
:102B000070470A460021018B4FF6FF3319404FF6FC
:102B1000FF7303EA02231943018370470A46002129
:102B2000818B4FF6FB7319401143818370470A462E
:102B30000021818B4FF6FF3319404FF6FF7303EAF4
:102B400002231943818370470A460021018B4FF607
:102B50007F7319401143018370470A460021018B9E
:102B6000C1F30E014FF6FF7303EA022319430183F9
:102B700070470A460021818B4FF67F73194011433D
:102B8000818370470A460021818BC1F30E014FF605
:102B9000FF7303EA02231943818370470A46002129
:102BA000018C4FF6FD7319401143018470470A46AA
:102BB0000021018C4FF6F7731940114301847047CF
:102BC0000A460021018C4FF6DF7319404FF6FF7360
:102BD00003EA02131943018470470A460021018C5D
:102BE0004FF67F7319404FF6FF7303EA0213194340
:102BF000018470470A460021018C4FF6FF531940AB
:102C00004FF6FF7303EA02231943018470470A4613
:102C10000021018C4FF2FF7319404FF6FF7303EA56
:102C200002231943018470470A460021018C4DF6A6
:102C3000FF7319404FF6FF7303EA0233194301840F
:102C4000704730B5002301248C40A3B2048C9C4310
:102C50000484048C02FA01F5ADB22C43048430BD27
:102C600030B5002304248C40A3B2048C9C4304841C
:102C7000048C02FA01F5ADB22C43048430BD70B56A
:102C80000346002000241846183001258D40ACB2C0
:102C90001D8CA5431D8409B1082909D100EB6100F1
:102CA000056825F0700505600568154305600EE0B0
:102CB0000D1FC5F34E052844056825F4E045056061
:102CC00005684FF6FF7606EA02263543056070BDBB
:102CD00021B1028842F00202028004E002884FF62D
:102CE000FD731A400280704721B1028842F004024D
:102CF000028004E002884FF6FB731A40028070479E
:102D000021B1828842F08002828004E082884FF6FE
:102D10007F731A408280704702884FF6F7731A401B
:102D2000028002880A430280704782884FF68F73C0
:102D30001A40828082880A438280704702894FF657
:102D4000F8731A40028102890A430281704702899E
:102D50004FF67F731A40028102890A43028170474D
:102D600081847047818570478186704701877047ED
:102D700081877047A0F84010704702884FF6FF43E4
:102D80001A40028002880A43028070470146888EFA
:102D900070470146088F70470146888F704701468B
:102DA000B1F8400070470146888C70470146088D95
:102DB000704702460020138A0B400BB1012000E04F
:102DC00000207047CA430282704730B50246002097
:102DD00000230024158A05EA0103958905EA010408
:102DE00013B10CB1012000E0002030BDCA430282C3
:102DF0007047000010B56FF00400FEF74AFB2E4844
:102E000000682E49B0FBF1F02D49087008460078A3
:102E100000EB4001C1EBC0104FF6FF7101EAC000AA
:102E20002849088010BD0146254A12784A434FF0D0
:102E3000E0235A6100229A611A46126942F00102A7
:102E40001A6100BF4FF0E022106900F001021AB1D0
:102E500000F48032002AF5D04FF0E022126922F00F
:102E600001024FF0E0231A6100229A617047014687
:102E7000144A12884A434FF0E0235A6100229A61B3
:102E80001A46126942F001021A6100BF4FF0E022B7
:102E9000106900F001021AB100F48032002AF5D066
:102EA0004FF0E022126922F001024FF0E0231A6194
:102EB00000229A61704700002C04002000127A0062
:102EC0005404002056040020014600BF704700BF94
:102ED000694A128802F04002002AF9D0C2B2664B59
:102EE0001B1D1A80704710B5C821644803F06EF8A6
:102EF00000206349088010BD10B586B0044601214A
:102F000044F20400FEF700FE4FF40070ADF8140028
:102F100003208DF8160018208DF8170005A95948D0
:102F2000FEF736FB4FF48060ADF8140004208DF8F6
:102F3000170005A95348FEF72BFB25208DF800004C
:102F400003208DF801008DF8020001208DF80300A8
:102F50006846FEF754FA01940020ADF80800ADF879
:102F60000A00ADF80C00ADF810000C20ADF80E0012
:102F700001A94548FEF76FFE012240F22551424863
:102F8000FEF701FF01214048FEF7F1FEFFF7ABFF1E
:102F900006B010BD10B540F225513B48FEF7D8FFF2
:102FA000002839D03848FEF753FFC4B2242C02D190
:102FB000002033490880324801880088401C304A8C
:102FC00010802E484454007824281ED12B480079C4
:102FD0004D281AD129484079432816D10A2C14D1FA
:102FE00050212A4802F0F2FF254802882349274849
:102FF00002F06DFF0120254981F850000020204992
:103000000880C8211D4802F0E1FF1D480088C8283B
:1030100002DBC8201A49088010BD10B504462146BD
:10302000164802F023FF08B1012010BD0020FCE784
:1030300010B50020154981F8500081F8510081F841
:1030400078005021114802F0C1FF10485230002191
:1030500001604160018181720B300160416001813A
:1030600081725D38A0F868106A300160416081604B
:103070006A38A0F8761010BD004800407B0D002093
:103080005A0400200008014000380140020D0020D1
:103090002DE9F04F85B081460E464FF0000A3546C7
:1030A000B34634460496B9F1000F00D026B94FF06C
:1030B000FF3005B0BDE8F08F4FF0000A85E009F160
:1030C000010010F80A00152879D2DFE800F04B4C17
:1030D0004D78784E4F505178787878525C6B580B19
:1030E0001B2B3B00D5F809007949C1F80900D1F83C
:1030F000090005F04FFB07463A460B4675A002F063
:1031000069FD5DE0D5F80D007149C1F80D00D1F8F9
:103110000D0005F03FFB07463A460B4674A002F04F
:1031200059FD4DE0D5F811006949C1F81100D1F8F9
:10313000110005F02FFB07463A460B4673A002F03C
:1031400049FD3DE0D5F815006149C1F81500D1F8F9
:10315000150005F01FFB07463A460B4671A002F02A
:1031600039FD2DE02CE02BE02AE029E028E027E0E3
:1031700026E09BF8001071A002F02CFD20E072A068
:1031800002F028FD1CE0A17962792379A068CDE9DD
:103190000032CDE90210E378A27821886FA002F016
:1031A00019FD0DE078A002F015FD7CA002F012FDE3
:1031B000049801787DA002F00DFD01E0FFE700BF5B
:1031C00000BF0AF1010000F0FF0A99F80000504525
:1031D0003FF775AF00206CE77948006808B101201F
:1031E00000E000203A49087076480068C1F8010004
:1031F00075480068C1F805000846D0F80900734911
:1032000008603348D0F80D00714908603048D0F8A4
:103210001100704908602E48D0F815006E4908600A
:10322000704710B519212A4802F0D0FE10BD6B4836
:103230000068401C6949086070476848006870472A
:10324000012080F3138800BF00BF6548006800F4C8
:10325000E06064490843001D61490860BFF34F8F77
:1032600000BF00BFFEE700B5FFF7E1FF00BD08B5F6
:10327000002000900121684600F0B8F808BD70B544
:1032800005460E4600240DB9601E70BD00241BE0EB
:10329000295D5548FEF7D8FD00BF80215248FEF752
:1032A00041FE0028F9D0022C0DD3285DFF280AD159
:1032B00055214D48FEF7C8FD00BF80214A48FEF762
:1032C00031FE0028F9D0641CB442E1D33046DCE77B
:1032D000430E00204576743A4556454E545F73744C
:1032E0006172745F6A696E67202534660A000000A7
:1032F0004576743A4556454E545F73746172745FF7
:10330000776569202534660A000000004576743A26
:103310004556454E545F656E645F6A696E67202549
:1033200034660A004576743A4556454E545F656EDC
:10333000645F776569202534660A0000525353495B
:103340002025640A000000005452414E535041525F
:10335000454E545F44415441200A000057494649B4
:103360005F4E5450203A205B25642D25642D256442
:1033700020253032643A253032643A253032645D9B
:103380005B25645D200A00004D4F44554C452049A3
:103390004E464F202E2E2E0A000000005749462090
:1033A0004D4F44554C45202E2E2E0A006D6F6475EE
:1033B0006C6554797065203A205B25645D200A00B5
:1033C00014040020100400200C0400201804002025
:1033D0001C04002020040020240400206404002099
:1033E0000CED00E00000FA050048004070B504460E
:1033F0000D46002624B9F3A002F0ECFB701E70BD50
:103400002A462146F74802F061FB0646AE4205D047
:10341000F5A002F0DFFB4FF0FF30F0E73046EEE7BB
:1034200010B504462CB9F7A002F0D4FB4FF0FF30E2
:1034300010BD002020606060FF20207060700020C0
:10344000F6E770B504460D462CB9F9A002F0C2FBB0
:103450004FF0FF3070BD2A21FB4802F0B7FD2A462D
:103460002146F948801C02F032FDF7485138A0F897
:103470007550012180F85210FFF7DFFEF2495139F3
:10348000C1F877000020E5E702460021002001B9DD
:1034900007E001F007030BB9C80802E0012303EBC2
:1034A000D10070472DE9F04F85B006460C4617460F
:1034B0004FF00008C34600250020019002900390C1
:1034C000049030788DF804000EB104B13FB9DFA04C
:1034D00002F080FB4FF0FF3005B0BDE8F08F01A88F
:1034E000FFF7D2FF804608F1010005449DF8040073
:1034F000C0F3C000F0B111212278601C8154207803
:10350000401C2070711901A80988ADF80A10AD1C83
:10351000BDF80A0001F0E1FE009005F003FB8246D1
:1035200005F0C8FA81464A46D349D44802F0C9F8A2
:10353000C7F809009DF80400C0F30010F0B1122193
:103540002278601C81542078401C2070711901A8D9
:103550000988ADF80C10AD1CBDF80C0001F0BDFEE3
:10356000009005F0DFFA824605F0A4FA81464A464B
:10357000C349C24802F0A5F8C7F80D009DF8040041
:10358000C0F34010F0B113212278601C81542078E0
:10359000401C2070711901A80988ADF80E10AD1CEF
:1035A000BDF80E0001F099FE009005F0BBFA8246CE
:1035B00005F080FA81464A46AF49B04802F081F8EA
:1035C000C7F811009DF80400C0F38010F0B1142179
:1035D0002278601C81542078401C2070711901A849
:1035E0000988ADF81010AD1CBDF8100001F075FE93
:1035F000009005F097FA824605F05CFA81464A464B
:103600009F499E4802F05DF8C7F81500002063E767
:103610002DE9F04104460D460026002704B135B9D6
:1036200098A002F0D7FA4FF0FF30BDE8F081FFF725
:1036300004FE07462878217888420ED09BA002F02D
:10364000C9FA8148513890F8D30020F00100401C9D
:103650007D49513981F8D3000126D4F80910D5F8F5
:10366000090005F0F3F90ED096A002F0B3FA7648FF
:10367000513890F8D30020F00800083072495139D1
:1036800081F8D3000126D4F80D10D5F80D0005F00F
:10369000DDF90ED092A002F09DFA6B48513890F8F7
:1036A000D30020F0100010306749513981F8D30061
:1036B0000126D4F81110D5F8110005F0C7F90ED085
:1036C0008DA002F087FA6048513890F8D30020F0BE
:1036D000200020305C49513981F8D3000126D4F80C
:1036E0001510D5F8150005F0B1F90ED088A002F03C
:1036F00071FA5548513890F8D30020F0400040301E
:103700005149513981F8D3000126D4F80110D5F878
:10371000010005F09BF915D083480068381A41F282
:10372000707188420ED381A002F054FA4648513895
:1037300090F8D30020F00200801C4349513981F8F1
:10374000D3000126D4F80510D5F8050005F07EF960
:1037500015D075480068381A41F2707188420ED34E
:1037600078A002F037FA3848513890F8D30020F0AA
:103770000400001D3449513981F8D3000126012E7F
:1037800003D1FFF75AFD6849086030464DE72DE93F
:10379000F04788B005460F4690464FF000090026D6
:1037A0000024002000900190029003902648513898
:1037B00090F8D3008DF80000641C05B107B9CBE088
:1037C000D2E000004552523A2067697A507574443D
:1037D0006174612062756620697320656D7074790B
:1037E000200A0000C20F00204552523A204661696B
:1037F0006C656420746F2072625772697465200A68
:10380000000000004552523A2067697A50726F7486
:103810006F636F6C48656164496E697420686561A7
:103820006420697320656D707479200A00000000BF
:103830004552523A206461746120697320656D704D
:103840007479200A00000000AD0E002067697A44F8
:10385000617461506F696E74324576656E7420458F
:1038600072726F72202C20496C6C6567616C2050FD
:103870006172616D0A000000F6A892420AD7233CEB
:10388000D7A3604067697A436865636B5265706F60
:103890007274204572726F72202C20496C6C6567BF
:1038A000616C20506172616D0A00000076616C7578
:1038B000657761726E5F666C6167204368616E67F1
:1038C00065640A0076616C756573746172745F6A11
:1038D000696E67204368616E6765640A00000000D6
:1038E00076616C756573746172745F776569204386
:1038F00068616E6765640A0076616C7565656E6403
:103900005F6A696E67204368616E6765640A0000DC
:1039100076616C7565656E645F7765692043686183
:103920006E6765640A0000006804002076616C75AB
:10393000656A696E676475204368616E6765640ACD
:103940000000000076616C756577656964752043D9
:1039500068616E6765640A00F6A002F03BF94FF0FB
:10396000FF3008B0BDE8F087FE4890F8D30000F0C3
:10397000010038B12B780DEB04020121304601F033
:10398000CAFE761C16B94FF0000908E006F00700E1
:1039900010B94FEAD60902E0012000EBD609B9F1CF
:1039A000010F04D90DEB0400494601F04FFE4C44D1
:1039B000EC4890F8D300C0F3400090B1D5F8012056
:1039C000E949EA4801F068FE1FFA80FA504601F022
:1039D00084FCADF811000DEB0400BDF8111001805E
:1039E000A41CE04890F8D300C0F3800090B1D5F853
:1039F0000520DF49DD4801F04FFE1FFA80FA5046EE
:103A000001F06BFCADF813000DEB0400BDF81310D2
:103A10000180A41CD34890F8D300C0F3C00090B13B
:103A2000D5F80920D049D14801F036FE1FFA80FAB6
:103A3000504601F052FCADF815000DEB0400BDF846
:103A400015100180A41CC74890F8D300C0F30010E3
:103A500090B1D5F80D20C649C44801F01DFE1FFAEB
:103A600080FA504601F039FCADF817000DEB040068
:103A7000BDF817100180A41CBA4890F8D300C0F319
:103A8000401090B1D5F81120B749B84801F004FEB4
:103A90001FFA80FA504601F020FCADF819000DEB3A
:103AA0000400BDF819100180A41CAE4890F8D300A2
:103AB000C0F3801090B1D5F81520AD49AB4801F0A6
:103AC000EBFD1FFA80FA504601F007FCADF81B0031
:103AD0000DEB0400BDF81B100180A41CA1480021BF
:103AE00080F8D310C8F8004069463846D8F800205E
:103AF00002F0EDF9002034E72DE9F04780460C464E
:103B000017461D46089E94F800900CB105B136B9D1
:103B100098A002F05FF84FF0FF30BDE8F087B8F1F1
:103B2000000F5ED116218F487B3002F04FFAB9F1B9
:103B3000050F37D0B9F1110F03D0B9F1120F4ED1E3
:103B400010E098A002F046F8864AE632A2F16B0136
:103B5000601CFFF7A7FC01208249087000250020A7
:103B600030603DE098A002F035F87E48617880F83A
:103B7000D31000F1E20200F1D401FF30FFF707FE9D
:103B800060B97848D0F8E22000F1D401681C02F056
:103B90009EF9132028700F20306002E04FF0FF30B4
:103BA000BBE71DE07A1E611C6E48233002F08FF9DE
:103BB000781E6C49C1F8450010216A4890F87B20B6
:103BC0007C3081547C3890F87B00401C654981F83A
:103BD0007B000320087000250020306000E000BF5B
:103BE00000BF002099E72DE9F04F93B006468B46C1
:103BF000174699460020129082468046002501AC67
:103C0000BBF1000F06D179A001F0E4FF681E13B0EC
:103C1000BDE8F08FB9F1010F06D196F8088008F1E0
:103C20000600384485B201E0781D85B22B46424635
:103C3000394674A001F0CEFFFF2004F8010B04F810
:103C4000010B281204F8010B04F8015B3079401CC9
:103C500004F8010B707904F8010B002004F8010B43
:103C600004F8019B4FF0080AB9F1010F0DD104F8D7
:103C7000018B0AF1010A01A901EB0A00424606F193
:103C8000090102F024F9C244444437B101A901EB0F
:103C90000A003A46594602F01AF9291D01A801F016
:103CA00009FB0146E81C01AA1154291D01A8FFF7D0
:103CB000E6FA12901298002806DA5CA0129901F038
:103CC00089FF6FF00100A2E70020A0E72DE9F04393
:103CD00089B006460F4690464FF000096C4608F141
:103CE000060085B23FB957A001F074FF4FF0FF30D6
:103CF00009B0BDE8F083FF2004F8010B04F8010BC4
:103D0000281204F8010B04F8015B052004F8010BEC
:103D1000144890F84910D0F84900401C114AC2F8E4
:103D2000490004F8011B002004F8010B04F8010B02
:103D30009CE0000067697A44617461506F696E7439
:103D400073325265706F727444617461204572728F
:103D50006F72202C20496C6C6567616C2050617219
:103D6000616D0A005C0E0020F6A892420AD7233C3F
:103D7000D7A3604067697A50726F746F636F6C4944
:103D8000737375656450726F6365737320457272E7
:103D90006F72202C20496C6C6567616C20506172D9
:103DA000616D0A00414354494F4E5F454C4F4E47A9
:103DB0004154455F434F4E54524F4C5F4445564922
:103DC0004345200A00000000414354494F4E5F45DF
:103DD0004C4F4E474154455F524541445F44455620
:103DE0005F535441545553200A0000005B45525222
:103DF0005D202064617461204973204E756C6C20D5
:103E00000A0000006C656E203D202564202C207384
:103E10004469644C656E203D202564202C646174E7
:103E2000615F6C656E203D2025640A0075617274C7
:103E3000207772697465206572726F722025642024
:103E40000A00000067697A5265706F727444617489
:103E500061204572726F72202C20496C6C6567611D
:103E60006C20506172616D0A0000000004F8016B63
:103E7000424639460DF1090002F029F8291D68462D
:103E800001F018FA0146E81C0DF80010291D6846DB
:103E9000FFF7F5F98146B9F1000F06DA4946FEA0B1
:103EA00001F098FE6FF0010022E7291D6846FFF738
:103EB000C8FA00201CE770B50546FFF7BEF90446B6
:103EC0000026FC492846FFF7A3FB012818D1FAA0D9
:103ED00001F080FEF74A1D3AA2F10E012846FFF7D5
:103EE00056FC40B9F348FF38D0F8E22000F1D40185
:103EF0001420FFF7EBFE19222946EE4801F0E7FFF8
:103F0000F348B4FBF0F100FB114020BBF14800681E
:103F1000A04220D0F0A001F05DFEFF220121E54883
:103F20002C3802F04BF8E34A1D3AA2F10E01284664
:103F3000FFF72DFC40B9DF48FF38D0F8E22000F150
:103F4000D4011420FFF7C2FE19222946D94801F0F6
:103F5000BEFFE0480460304601F006FE70BD2DE96A
:103F6000FE4F80460E4617464FF0000B0020029091
:103F700081468246002534460090B8F1000F01D0FA
:103F800006B137B9DAA001F025FE4FF0FF30BDE8E9
:103F9000FE8F404601F01EFD00F0FF0ABAF1000F4F
:103FA00002D14FF0FF30F2E74FF000095DE001224F
:103FB00001A9404601F039FD8346BBF1000F52D004
:103FC000D7480078FF281FD19DF80400FF281BD197
:103FD000D448007848B9FF20207060700220D24990
:103FE00008800120CF49087034E0CF4800880428B9
:103FF00030DDCD480088A8422CD0FF2020706070B2
:104000000220C949088025E0C5480078FF2803D16F
:104010009DF8040055281DD0C2480078012819D108
:104020009DF80400C04909886054BF480088401CBE
:10403000BD4908800846008804280BDD0094009CD8
:10404000608801F04AF9001D85B2B7480088A8428F
:1040500000D10CE09DF80400B1490870B348007825
:10406000401CB249087009F10109D1459FDB00BF2E
:10407000AD480088042823DDAB480088A8421FD142
:10408000A9480188204601F015F90290A648008849
:10409000401E215C029881420FD12A4621463046BB
:1040A00001F015FF3D8000209E4908709E49088060
:1040B0009E4908709A49087069E76FF0010066E749
:1040C000012064E710B500247A48FF3890F85200C8
:1040D00000B910BD96A001F07DFD7648FF38B0F81C
:1040E00075105330FFF7CBF804467248FF38B0F82C
:1040F0007500A04202D096A001F06CFDFFF79DF87C
:104100006C49FF39C1F8770000BFE2E770B504469B
:10411000684DAC3D34B9AFF6E80001F05BFD4FF0FF
:10412000FF3070BD2879401C2179884204D12A21B2
:104130006048AE3801F04AFF0020F2E73EB5044681
:10414000002524B988A001F045FD681E3EBD206809
:104150000090606801909DF80400401CC0B28DF88A
:104160000400052001F0B9F8ADF802000921684605
:1041700001F0A0F88DF8080009216846FFF77FF8E4
:104180000546002D03DA294643A001F023FD284609
:10419000DCE710B54748FF3890F8520001282CD1D1
:1041A0004448FF3890F85100022821DAFFF745F81B
:1041B0004049FF39D1F87710401AC8281DD9FFF7B8
:1041C0003CF804463B48FF3890F85130D0F877204F
:1041D000214670A001F0FEFCFFF774FF3548FF3860
:1041E00090F85100401C3349FF3981F8510004E038
:1041F0002A213048AE3801F0E9FE10BD30B59DB03F
:10420000044600252CB96DA001F0E4FC681E1DB029
:1042100030BD6846FFF704F902208DF8040060798C
:104220008DF8050071A103C9CDE9020172A103C98E
:10423000CDE9040173A103C9CDE9080174A103C943
:10424000CDE90601202275A10AA801F085FE2022F1
:104250007BA10DF1520001F03AFE0020CDF84A009A
:10426000CDF84E009DF851008DF851009DF8510099
:1042700040F002018DF85110002001F02EF8ADF849
:1042800048006F2001F029F8ADF80200732168465C
:1042900001F010F8E6E000004552523A20756172D4
:1042A00074207772697465206572726F722025645C
:1042B000200A00005B0F00206368616E6765642C54
:1042C000207265706F727420646174610A0000006E
:1042D000C02709006C040020496E666F3A20363012
:1042E0003053207265706F727420646174610A00CB
:1042F00067697A50726F746F636F6C4765744F6E45
:10430000655061636B6574204572726F72202C205A
:10431000496C6C6567616C20506172616D0A0000C8
:104320007404002070040020720400207504002032
:104330005761726E696E673A2074696D656F757446
:104340002C20726573656E642064617461200A00BC
:104350004552523A20726573656E642064617461DF
:10436000206572726F720A004552523A2067697A6C
:1043700050726F746F636F6C436F6D6D6F6E4163DE
:104380006B206461746120697320656D707479209D
:104390000A0000005761726E696E673A67697A5069
:1043A000726F746F636F6C526573656E6444617491
:1043B000612025642025642025640A0067697A50FD
:1043C000726F746F636F6C4765744465766963657B
:1043D000496E666F204572726F72202C20496C6C9A
:1043E0006567616C20506172616D0A003030303059
:1043F0003030303400000000303030303030303277
:104400000000000030333033303030300000000026
:10441000303330313031303000000000386130341A
:104420003932616437393234346534613930323984
:10443000333666646666303930313364000000001C
:104440003730663565333863333636363432333396
:1044500039326264616234316331623636323465D6
:10446000000000008DF8720073216846FEF707FF18
:104470000546002D04DA2946AFF2E41001F0AAFB4C
:104480002846C4E6FEB504460E46002524B9FEA023
:1044900001F0A0FB681EFEBD6846FEF7C1FF1220BA
:1044A0008DF8040060798DF80500062000F015FFF6
:1044B000ADF802008DF808600A21684600F0FAFEA7
:1044C0008DF809000A216846FEF7D9FE0546002D41
:1044D00004DA2946AFF2402001F07CFB2846DAE7F7
:1044E00070B5044625462CB9F2A001F073FB4FF0DD
:1044F000FF3070BDF448A9680160E9684160298A0D
:104500000181A97C8172A0F21911B1F8190100F0A2
:10451000E4FEEE49A1F81901D1F8210100F0EAFE0C
:10452000EA49C1F821010E21E84890F8A720A830F7
:104530008154A83890F8A700401CE44981F8A700EE
:10454000042008700020D4E710B5FEF776FE04467C
:1045500000BFFEF772FE001BB0F5167FF9D9FEF71B
:104560006FFE10BD10B504462CB9D9A001F032FB86
:104570004FF0FF3010BD208900F0AFFE2081E048F1
:104580000078C0F38000217AC1F38001884256D0C0
:10459000207AC0F38000002829D0207A00F00100A2
:1045A00078B10021C94890F8912092308154923816
:1045B00090F89100401CC54981F89100D1A001F00C
:1045C00009FB207AC0F34000002838D00121BF4801
:1045D00090F8912092308154923890F89100401CCC
:1045E000BA4981F89100CFA001F0F4FA27E0207ACF
:1045F00000F0010078B10021B44890F89120923089
:104600008154923890F89100401CB04981F8910093
:10461000BCA001F0DFFA207AC0F3400078B102219B
:10462000AA4890F8912092308154923890F89100E5
:10463000401CA64981F89100C1A001F0CBFAB04816
:104640000078C0F3C000217AC1F3C00188422CD0A9
:10465000207AC108AA48007861F3C300A84908700D
:10466000207AC0F3C00080B10321984890F89120CF
:1046700092308154923890F89100401C934981F80F
:104680009100B6A001F0A6FA0FE004218F4890F83F
:10469000912092308154923890F89100401C8B49BF
:1046A00081F89100B5A001F095FA95480078C0F323
:1046B0000010217AC1F3001188422CD0207A010920
:1046C0008F48007861F304108D490870207AC0F398
:1046D000001080B105217D4890F8912092308154DE
:1046E000923890F89100401C784981F89100ABA075
:1046F00001F070FA0FE00621744890F89120923092
:104700008154923890F89100401C704981F89100D2
:10471000AAA001F05FFA7A480078C0F34010217A2D
:10472000C1F3401188422CD0207A410974480078A6
:1047300061F3451072490870207AC0F3401080B1CF
:104740000721624890F8912092308154923890F875
:104750009100401C5D4981F89100A1A001F03AFA56
:104760000FE00821594890F89120923081549238F6
:1047700090F89100401C554981F891009FA001F0EC
:1047800029FA5F484078C0F3C001607AC0F3C000E6
:1047900081422CD0607AC1085948407861F3C30047
:1047A00057494870607AC0F3C00080B10B21474878
:1047B00090F8912092308154923890F89100401CEA
:1047C000424981F8910095A001F004FA0FE00C2114
:1047D0003E4890F8912092308154923890F89100A0
:1047E000401C3A4981F8910093A001F0F3F9444844
:1047F0004078C0F30011607AC0F3001081422CD0E1
:10480000607A01093E48407861F304103C494870E1
:10481000607AC0F3001080B109212C4890F89120F3
:1048200092308154923890F89100401C274981F8C9
:10483000910089A001F0CEF90FE00A21234890F8F9
:10484000912092308154923890F89100401C1F4979
:1048500081F8910087A001F0BDF90D211B4890F867
:10486000912092308154923890F89100401C174961
:1048700081F89100607A00F0070081F8180108467D
:1048800090F8181104E1000067697A50726F746F34
:10489000636F6C4572726F72436D64204572726F04
:1048A00072202C20496C6C6567616C2050617261CC
:1048B0006D0A00004552523A204E54502069732030
:1048C000656D707479200A00750F00205C0E002061
:1048D00067697A50726F746F636F6C4D6F64756C3B
:1048E00065537461747573204572726F72202C2049
:1048F000496C6C6567616C20506172616D0A0000E3
:10490000760400204F6E426F617264696E673A20D0
:10491000536F66744150206F7220576562206D6F2F
:1049200064650A004F6E426F617264696E673A2077
:104930004169724C696E6B206D6F64650A000000FE
:104940004F6E426F617264696E673A20537461748E
:10495000696F6E206D6F64650A00000057694669D3
:10496000207374617475733A20696E2062696E6495
:10497000696E67206D6F64650A00000057694669BB
:10498000207374617475733A206F75742062696E58
:1049900064696E67206D6F64650A00005769466937
:1049A000207374617475733A20636F6E6E656374FF
:1049B000656420726F757465720A000057694669F4
:1049C000207374617475733A20646973636F6E6EDB
:1049D000656374656420726F757465720A00000007
:1049E00057694669207374617475733A20636F6EFA
:1049F0006E6563746564206D326D0A00576946699F
:104A0000207374617475733A20646973636F6E6E9A
:104A10006563746564206D326D0A000057694669EC
:104A2000207374617475733A2061707020636F6EC7
:104A30006E6563740A0000005769466920737461EB
:104A40007475733A206E6F2061707020636F6E6EA4
:104A50006563740A00000000576946692073746139
:104A60007475733A20696E2074657374206D6F6479
:104A7000650A000057694669207374617475733A5A
:104A8000206F75742074657374206D6F64650A00FF
:104A9000FCA001F09FF80220FE490870002069E5A3
:104AA00010B54420FC490860FC48C860084600F086
:104AB00073FF18B9FAA001F08DF802E0FDA001F033
:104AC00089F84FF4B371F34801F080FA10BD30B5A6
:104AD00087B005460024062D7ED2DFE805F00331BD
:104AE0006193C1F001A8FEF79BFC0B208DF8080034
:104AF000E84890F84910D0F84900401CE54AC2F84F
:104B00004900C8B28DF80900052000F0E6FBADF8B9
:104B10000600092101A800F0CDFB8DF80C00092149
:104B200001A8FEF7ACFB0446002C04DA2146AFF6E0
:104B3000980001F04FF8092101A8FEF782FCF0E08F
:104B400004A8FEF76DFC09208DF81400D14890F8F8
:104B50004910D0F84900401CCE4AC2F84900C8B2FA
:104B60008DF815008DF81850062000F0B6FBADF852
:104B700012000A2104A800F09DFB8DF819000A21FB
:104B800004A8FEF77CFB0446002C04DA2146AFF6AD
:104B9000F80001F01FF80A2104A8FEF752FCC0E05B
:104BA00004A8FEF73DFC09208DF81400B94890F8E0
:104BB0004910D0F84900401CB64AC2F84900C8B2B2
:104BC0008DF815008DF81850062000F086FBADF822
:104BD00012000A2104A800E09FE000F06BFB8DF8B2
:104BE00019000A2104A8FEF74AFB0446002C04DA47
:104BF0002146AFF65C1000F0EDFF0A2104A8FEF795
:104C000020FC8EE001A8FEF70BFC13208DF80800B5
:104C1000A04890F84910D0F84900401C9D4AC2F8BD
:104C20004900C8B28DF80900052000F056FBADF828
:104C30000600092101A800F03DFB8DF80C000921B8
:104C400001A8FEF71CFB0446002C04DA2146AFF64F
:104C5000B81000F0BFFF092101A8FEF7F2FB60E0E9
:104C600001A8FEF7DDFB15208DF80800894890F8B3
:104C70004910D0F84900401C864AC2F84900C8B221
:104C80008DF80900052000F028FBADF80600092189
:104C900001A800F00FFB8DF80C00092101A8FEF718
:104CA000EEFA0446002C04DA2146AFF6142000F098
:104CB00091FF092101A8FEF7C4FB32E0FFE701A83C
:104CC000FEF7AEFB29208DF80800724890F84910D5
:104CD000D0F84900401C6F4AC2F84900C8B28DF8AC
:104CE0000900052000F0F9FAADF80600092101A835
:104CF00000F0E0FA8DF80C00092101A8FEF7BFFAD8
:104D00000446002C04DA2146AFF6742000F062FF5E
:104D1000092101A8FEF795FB03E06BA000F05AFF04
:104D200000BF00BF204607B030BD3EB50024684636
:104D3000FEF776FB17208DF80400564890F84910CE
:104D4000D0F84900401C534AC2F84900C8B28DF857
:104D50000500052000F0C1FAADF8020009216846FF
:104D600000F0A8FA8DF8080009216846FEF787FAD6
:104D70000446002C03DA214659A000F02BFF09213C
:104D80006846FEF75EFB3EBD3EB500246846FEF772
:104D900047FB21208DF804003E4890F84910D0F8D8
:104DA0004900401C3B4AC2F84900C8B28DF80500D2
:104DB00000208DF80800062000F08FFAADF8020000
:104DC0000A21684600F076FA8DF809000A21684643
:104DD000FEF755FA0446002C03DA214640A000F005
:104DE000F9FE0A216846FEF72CFB3EBD70B504466D
:104DF00025462CB942A000F0EDFE4FF0FF3070BD0B
:104E0000412205F10801424801F061F80F212148D3
:104E100090F8BD20BE308154BE3890F8BD00401CD3
:104E20001C4981F8BD00052008700020E7E72DE946
:104E3000F04194B005460026002002900190002425
:104E40008046002735B933A000F0C4FE601E14B0C0
:104E5000BDE8F081FFF79DF902AA0E49491C0E48F2
:104E6000FFF77DF80646002E0BD134A000F0B2FE0D
:104E7000084C641C20790F286AD075DC0E2869D292
:104E800069E0E2E052535349206973202564200A07
:104E9000000000005C0E0020C20F0020D20F002096
:104EA00072624372656174652053756363657373E1
:104EB000200A000072624372656174652046616970
:104EC0006C64200A000000004552523A2043666795
:104ED0004D6F6465206572726F72210A00000000D8
:104EE0004552525B4E54505D3A2075617274207782
:104EF00072697465206572726F72202564200A00E1
:104F00004E545020697320656D707479200A00003A
:104F1000810F002047697A7769747348616E646C09
:104F200065204572726F72202C20496C6C65676138
:104F30006C20506172616D0A0000000047657420AA
:104F40004F6E65205061636B6574210A000000009C
:104F50004DE009E070E0DFE800F06F166F1A6F6F48
:104F600042376F6F436F443B182851D006DC11283D
:104F700046D0142845D016285ED133E0222851D0DF
:104F80002A2859D12FE02046FFF738F95CE0E27972
:104F9000A17990A000F01EFE01A8009007F1090081
:104FA000BDF808301A1A8F48C11903AB4046FEF706
:104FB000A3FD40B9E37903A92046019AFEF713FE49
:104FC00089A000F007FE3FE02046FFF7B7F83BE07E
:104FD0002046FFF7B3F82046FFF7C4FA34E000BFDD
:104FE00000BF00BF00BF2046FFF790F82CE020462E
:104FF000FFF7A4F87FA000F0EDFDFFF7A5FA23E08E
:1050000022E02046FFF782F87FA000F0E3FD1BE0DE
:105010002046FFF77BF82046FFF762FA82A000F0F7
:10502000D9FD11E02046FFF771F82046FFF7DEFEBC
:1050300083A000F0CFFD07E002212046FFF722FA0F
:1050400086A000F0C7FD00BF0EE016F1020F0BD1E5
:10505000644C083C01212046FFF714FA85A000F0BB
:10506000B9FD6FF00100F2E65E48093800780628C5
:1050700053D2DFE800F05203132430410020594995
:10508000093908701922E631A1F16B00FEF700F82A
:1050900016215448723000F099FF3FE0002051493A
:1050A00009390870012201F58C71A1F18700FDF723
:1050B000EFFF16214B48883000F088FF2EE00020DB
:1050C0004849093908700846D0F8452023317B301B
:1050D000FDF7DEFF22E000204249093908700C226A
:1050E00001F21911A1F17200FDF7D2FF16213D481E
:1050F0009E3000F06BFF11E000203A49093908703A
:10510000412201F22511A1F16800FDF7C1FF412103
:105110003448B43000F05AFF00E000BF00BF28461A
:10512000FEF7C9FE002092E62DE9F0418AB006465E
:105130000F464FF0000801ACB81D85B23EB953A030
:1051400000F048FD4FF0FF300AB0BDE8F081FF20CD
:1051500004F8010B04F8010B281204F8010B04F801
:10516000015B052004F8010B1E48093890F849102E
:10517000D0F84900401C1B4A093AC2F8490004F81B
:10518000011B002004F8010B04F8010B062004F8B1
:10519000010B3A4631460DF10D0000F098FE291D35
:1051A00001A800F087F80146E81C01AA1154291D46
:1051B00001A8FEF764F88046B8F1000F04DA414612
:1051C000AFF62C7000F006FD291D01A8FEF739F995
:1051D0000020B9E7666C6167202578202578200AD1
:1051E00000000000650E002041636B446174612083
:1051F0003A200A007265706F72743A4D43552072FE
:1052000065626F6F74210A0041636B2050524F44F6
:10521000554354494F4E5F4D4F444520737563636A
:10522000657373200A00000041636B204745545F9B
:105230005554542073756363657373200A0000002E
:1052400041636B204745545F4D6F64756C652073F7
:10525000756363657373200A000000004552523A7B
:1052600020636D6420636F6465206572726F7221C4
:105270000A0000004552523A20636865636B207350
:10528000756D206572726F72210A00005B45525283
:105290005D2067697A77697473506173737468729B
:1052A0006F75676844617461204572726F72200A7D
:1052B0000000000010B502460024002302B109B925
:1052C000002010BD022303E0D05C2044C4B25B1C6C
:1052D000481E9842F8D82046F3E701B581B0002077
:1052E0000090694601AA5078087010784870BDF89F
:1052F00000000CBD0146080601F47F4240EA02208E
:1053000001F47F0240EA122040EA1160704710B5B4
:1053100002460024302A05DB392A03DCA2F13000E2
:10532000C3B20EE0412A05DB462A03DCA2F13700B6
:10533000C3B206E0612A04DB662A02DCA2F1570050
:10534000C3B2302905DB392903DCA1F13000C4B236
:105350000EE0412905DB462903DCA1F13700C4B288
:1053600006E0612904DB662902DCA1F15700C4B222
:1053700004EB0310C0B210BD70B504460025002632
:10538000204600F085FD06460CB9681E70BD00255C
:1053900005E0605D302801D00020F7E76D1CB542C4
:1053A000F7D30120F2E72DE9F043034600BF0025C3
:1053B000002400260027012901D002290DD1A3F1E4
:1053C000010C4FF06408BCFBF8F4BCFBF8F908FBD7
:1053D00019C501F10C06174609E04FF0640CB3FB48
:1053E000FCF4B3FBFCF80CFB18350E46174606F12F
:1053F000010C4FF01A080CFB08FC4FF00A08BCFB2C
:10540000F8FC05EB950808EB94084FF0020909FB3E
:105410001488C444BC44ACF10100002806DB4FF002
:10542000070C90FBFCF80CFB180C07E04FF0070C86
:1054300090FBFCF80CFB180C0CF1070C6046BDE867
:10544000F08301460A46C81701EB90708010A1EB6B
:10545000800070B9642091FBF0F300FB131030B9A9
:105460004FF4C87091FBF0F300FB131008B9012052
:1054700070470020FCE710B504462046FFF7E1FF27
:1054800010B14FF4B77010BD40F26D10FBE72DE97D
:10549000F04190B080460E4640F2B2753022694924
:1054A00001A800F059FD344604F5E14400BF11E0C5
:1054B0002846FFF7E0FF074640F2A3207843B4EB0D
:1054C000C01F06D340F2A3207843A4EBC0146D1C88
:1054D00000E001E0002CEBD100BFA8B2ADF8340031
:1054E000002518E0BDF83400FFF7ABFF08B11D2020
:1054F000029001A850F8250040F2A3214843B4EBE4
:10550000C01F07D301A850F825004843A4EBC014DE
:105510006D1C00E001E0002CE4D100BF1C200290D3
:10552000681CC0B28DF83600012506E0464884426A
:1055300002D3241A6D1C00E001E0002CF6D100BF5C
:10554000E8B28DF837004FF46160B4FBF0F0C0B200
:105550008DF838004FF46160B4FBF0F100FB1140AE
:105560003C21B0FBF1F0C0B28DF839003C20B4FB17
:10557000F0F100FB11408DF83A00CDF83B600D983A
:10558000C8F800000E98C8F80400BDF83C00A8F860
:1055900008009DF83E0088F80A0010B0BDE8F081D0
:1055A0002DE9F05F80460E46914600241CE016F877
:1055B00014A06000401C16F800B0504600F0FBFA42
:1055C0003038C5B2092D01DDE81FC5B2584600F0DC
:1055D000F2FA3038C7B2092F01DDF81FC7B207EB66
:1055E000051008F80400641C4C45E0DBBDE8F09FA2
:1055F000F0B5034600201EE00E5CF71706EB1777A8
:105600003F1107F130050E5CF71706EB17773F11D6
:10561000A6EB07173037FCB2392D01DDEE1DF5B2D0
:10562000392C01DDE61DF4B203F81050012606EB1B
:1056300040069C55401C9042DEDB002603F81260B9
:10564000F0BD0000C0AD00088051010030B5024639
:105650000B460021002400250AB9481E30BD002158
:1056600008E0545C581A401E155C5554581A401EE8
:105670001454491CB1EB530FF3D30020EEE710B5DF
:1056800003460020541AB4FBF3F010BD10B50346D6
:10569000002002FB031010BD2DE9F04704460E4622
:1056A000154600273146284603F082FB81462146F5
:1056B00003F00AF9804603F0FDF907463846BDE8D5
:1056C000F0872DE9F04704460E4615460027284688
:1056D00003F028FA8146214603F06CFA80463146F1
:1056E00003F084F807463846BDE8F087024612B159
:1056F00002F0070028B9082901D8002070470120CE
:10570000FCE702F00700C0F10800884201D3002046
:10571000F4E70120F2E72DE9F047054688461446F4
:105720001E464FF00009CA460027002314B9581E30
:10573000BDE8F087EB0841462846FFF7D7FF07464C
:105740003FB9E05C05F0070106FA01F10843E054B7
:105750001DE0012F1BD1F0B205F00701C1F10801D6
:1057600040FA01F905F00700C0F10801FF200841E7
:1057700000EA060A581C205C40EA0900591C6054E3
:10578000E05C05F007010AFA01F10843E05400204B
:10579000CEE72DE9F04F8FB004460F4690461D46E8
:1057A0000026B246B146B34600200E90B8F1000F75
:1057B00000D025B94FF0FF300FB0BDE8F08F4FEAB1
:1057C000D4092A46414601A800F081FB012D09D9E0
:1057D000294601A8FFF73AFFB0F1FF3F02D14FF091
:1057E000FF30E9E739462046FFF780FF8246BAF1ED
:1057F000000F0CD101A810F8090004F007010841BE
:10580000C7F10802FF2111410840064321E0BAF127
:10581000010F1ED101A909F10100085C04F0070184
:10582000C1F10801791AC1F10802FF21114100EA12
:10583000010B01A810F8090004F0070108410E90BF
:1058400004F00700C0F108010BFA01F006430E98BE
:1058500006433046B0E72DE9F04F8FB005460C46C1
:1058600016469946189F4FF0000AD34600200E9026
:105870008046B9F1000F00D027B94FF0FF300FB0CC
:10588000BDE8F08F3A46494601A800F020FB012F01
:1058900009D9394601A8FFF7D9FEB0F1FF3F02D17F
:1058A0004FF0FF30EBE731462046FFF71FFF8246FF
:1058B000BAF1000F0CD101A8405D04F007010841C6
:1058C000C6F10802FF211141084040EA080821E022
:1058D000BAF1010F1ED101A9681C085C04F0070190
:1058E000C1F10801711AC1F10802FF21114100EA5A
:1058F000010B01A8405D04F0070108410E9004F07F
:105900000700C0F108010BFA01F040EA08080E9800
:1059100048EA00084046B2E72DE9F04704460D4644
:105920001746089E4FF00009CA46C8461BB94FF0FB
:10593000FF30BDE8F08739462846FFF7D7FE80469E
:10594000B8F1000F07D1185D05F0070106FA01F163
:10595000084318551EE0B8F1010F1BD1F0B205F055
:105960000701C1F1080140FA01F905F00700C0F193
:105970000801FF20084100EA060A601C185C40EAA2
:105980000900611C5854185D05F007010AFA01F17D
:10599000084318550020CCE7014611B94FF0FF30FD
:1059A0007047C8684860C86888600020F8E701460A
:1059B00011B94FF0FF3070470020C8604860886020
:1059C000086000BFF7E7014611B94FF0FF3070479C
:1059D0000868FCE700B5024612B94FF0FF3000BD81
:1059E00050689168884201D10020F8E750689168BA
:1059F000884203D290685168401AF0E71046FFF7DA
:105A0000E2FF51689368C91A401AE8E730B50446C6
:105A100014B94FF0FF3030BD2046FFF7D4FF0546E4
:105A20002046FFF7D7FF281AF5E72DE9F041044695
:105A30000F461646002514B9681EBDE8F08117B957
:105A40004FF0FF30F9E76068A168884214D2204621
:105A5000FFF7C0FFB04201D9304602E02046FFF711
:105A6000B9FF054661682A46384600F030FA60689A
:105A7000284460602846E0E72046FFF7A4FF6168FD
:105A8000E268891A401AB0420AD9354661682A4646
:105A9000384600F01CFA6068284460602846CCE76D
:105AA0002046FFF790FF6168E268891A451A61682D
:105AB0002A46384600F00BFAE0686060721B7919DC
:105AC0002046FFF7B2FF05442846B6E72DE9F0412E
:105AD00004460F461546002604B11FB94FF0FF30AB
